:100000000C9434000C943E000C943E000C943E0082
:100010000C943E000C943E000C943E000C943E0068
:100020000C943E000C943E000C943E000C943E0058
:100030000C943E000C943E000C943E000C943E0048
:100040000C943E000C943E000C943E000C943E0038
:100050000C943E000C943E000C943E000C943E0028
:100060000C943E000C943E0011241FBECFEFD8E04C
:10007000DEBFCDBF0E948C000C94E4010C94000004
:10008000CF92DF92EF92FF92CF93DF93EC016A0160
:100090007B0120E03FEF4FE757E4C701B6010E9424
:1000A0005B0118164CF40F2EC12CDD24DA94FFE707
:1000B000EF2EF7E4FF2EF02DC701B6010E9460017C
:1000C0000E94C600CE010E94D101DF91CF91FF9026
:1000D000EF90DF90CF900895E4E6F0E090819E7F6E
:1000E0009083EBE7F0E090811082EAE7F0E0908106
:1000F0009F6A9083ACE7B0E09C9190649C939C9144
:10010000892B8C938081806480838081FECF81E005
:100110000E946C000E948700CF92DF92EF92FF92C4
:10012000CF93DF938FB780688FBFC0E0D0E00E948D
:100130008A006B017C0120E03FEF4FE757E40E940B
:100140005B018823D4F4C701B6010E9460010E94BC
:10015000C60080E090E00E94F500AB01BC01CE013A
:100160000E9440008FE493EC0197F1F700C000007B
:100170002496C11594E0D907D1F680E090E0DF9194
:10018000CF91FF90EF90DF90CF9008950E943A01B9
:1001900088F09F5798F0B92F9927B751B0F0E1F048
:1001A000660F771F881F991F1AF0BA95C9F714C0F8
:1001B000B13091F00E945401B1E008950C945401C3
:1001C000672F782F8827B85F39F0B93FCCF3869531
:1001D00077956795B395D9F73EF49095809570958E
:1001E00061957F4F8F4F9F4F0895E89409C097FB0B
:1001F0003EF490958095709561957F4F8F4F9F4FFE
:100200009923A9F0F92F96E9BB279395F695879541
:1002100077956795B795F111F8CFFAF4BB0F11F404
:1002200060FF1BC06F5F7F4F8F4F9F4F16C08823AB
:1002300011F096E911C0772321F09EE8872F762FE1
:1002400005C0662371F096E8862F70E060E02AF022
:100250009A95660F771F881FDAF7880F969587950E
:1002600097F9089557FD9058440F551F59F05F3F77
:1002700071F04795880F97FB991F61F09F3F79F0C8
:1002800087950895121613061406551FF2CF46954A
:10029000F1DF08C0161617061806991FF1CF8695CC
:1002A0007105610508940895E894BB2766277727B0
:1002B000CB0197F908950E94840108F48FEF089507
:1002C0000E943A01E8F09E37E8F09639B8F49E387B
:1002D00048F4672F782F8827985FF9CF8695779510
:1002E000679593959539D0F3B62FB1706B0F711D4B
:1002F000811D20F487957795679593950C94A801B7
:100300000C94C3010C945501990F0008550FAA0BCA
:10031000E0E8FEEF16161706E807F907C0F0121618
:100320001306E407F50798F0621B730B840B950B1B
:1003300039F40A2661F0232B242B252B21F4089570
:100340000A2609F4A140A6958FEF811D811D08950D
:10035000882371F4772321F09850872B762F07C0DC
:10036000662311F499270DC09051862B70E060E050
:100370002AF09A95660F771F881FDAF7880F9695EF
:10038000879597F908959F3F31F0915020F4879514
:1003900077956795B795880F911D9695879597F9ED
:1003A00008950E94D601272F0C94D701262FF99982
:1003B000FECF1FBA92BD81BD20BD0FB6F894FA9A48
:0C03C000F99A0FBE01960895F894FFCF43
:00000001FF
