S014000056312041757820426F6172642E7372656333
S11300000C9434000C943E000C943E000C943E007E
S11300100C943E000C943E000C943E000C943E0064
S11300200C943E000C943E000C943E000C943E0054
S11300300C943E000C943E000C943E000C943E0044
S11300400C943E000C943E000C943E000C943E0034
S11300500C943E000C943E000C943E000C943E0024
S11300600C943E000C943E0011241FBECFEFD8E048
S1130070DEBFCDBF0E9461000C9477000C94000099
S11300800895E4E6F0E090819E7F9083EBE7F0E052
S113009090811082EAE7F0E09081976A9083ACE760
S11300A0B0E09C9190749C939C91892B8C9380815B
S11300B0806480838081FECF81E00E9441000E94A1
S11300C05C00CF93C0E10E945F00AB01BC0180E003
S11300D090E00E9440008FE493EC0197F1F700C098
S11300E00000C15081F780E090E0CF910895F8942A
S10500F0FFCF3C
S9030000FC
